:020000040800F2
:1000000000500020F92D00080D0800080F08000816
:100010001108000813080008150800080000000077
:1000200000000000000000000000000017080008A9
:1000300019080008000000001B0800081D0800083F
:10004000412E0008412E0008412E0008412E0008D4
:10005000412E0008412E0008412E0008412E0008C4
:10006000412E0008412E0008412E000825080008F6
:10007000412E0008412E0008412E0008412E0008A4
:10008000412E0008412E000835080008412E0008C6
:10009000412E0008412E0008412E0008412E000884
:1000A000412E0008412E0008412E0008412E000874
:1000B000412E0008412E0008412E0008412E000864
:1000C000412E0008412E0008412E0008412E000854
:1000D000412E000845080008412E0008412E000866
:1000E000412E0008412E0008412E000800000000AB
:1000F0000000000000000000000000000000000000
:0C01000000000000000000005FF808F1A3
:10010C0010B5054C237833B9044B13B10448AFF345
:10011C0000800123237010BD4C080020000000005B
:10012C00F049000808B5034B1BB103490348AFF372
:10013C00008008BD0000000050080020F0490008B5
:10014C00844641EA000313F0030349D1403A23D318
:10015C000B6803604B6843608B688360CB68C3603B
:10016C000B6903614B6943618B698361CB69C36123
:10017C000B6A03624B6A43628B6A8362CB6AC3620B
:10018C000B6B03634B6B43638B6B8363CB6BC363F3
:10019C0040304031403ADBD230320BD30B68036035
:1001AC004B6843608B688360CB68C3601030103140
:1001BC00103AF3D20C3205D351F8043B40F8043B0F
:1001CC00043AF9D2043208D0D2071CBF11F8013B13
:1001DC0000F8013B01D30B8803806046704700BFD9
:1001EC00082A13D38B07B1D010F00303AED0C3F1A0
:1001FC000403D21ADB071CBF11F8013B00F8013BCA
:10020C00A4D331F8023B20F8023B9FE7043AD9D340
:10021C00013A11F8013B00F8013BF9D20B7803705D
:10022C004B7843708B7883706046704700B585B00F
:10023C0000230193029303932548264A02604FF44E
:10024C00807282600122027303754FF46022C261D6
:10025C0043600423036100F08DFE48BB032301932C
:10026C00012302930023039301A9194800F0EAFC2F
:10027C0008BB042301930223029301A9144800F044
:10028C00E1FCD8B9082301930323029301A9104878
:10029C0000F0D8FCA8B909230193042302930DEBB9
:1002AC0003010B4800F0CEFC70B905B05DF804FBFF
:1002BC0000F001F9D2E700F0FEF8DAE700F0FBF805
:1002CC00E0E700F0F8F8E6E700F0F5F8EDE700BF3E
:1002DC00680800200024014030B589B00023049345
:1002EC0005930693079302682A4B9A4201D009B0F2
:1002FC0030BD044603F56C439A6942F400729A616E
:10030C009A6902F400720192019A9A6942F004020D
:10031C009A619A6902F004020292029A9A6942F076
:10032C0008029A619B6903F008030393039B18234B
:10033C0004930325059504A9174801F0F3F80495D7
:10034C00059504A9154801F0EDF81548154B036007
:10035C000023436083608023C3604FF48073036188
:10036C004FF480634361202383614FF40053C361D6
:10037C0000F07AFF58B90A4B23625C6202221146E4
:10038C00122000F003FF122000F034FFAFE700F062
:10039C0092F8F0E70024014000080140000C0140F5
:1003AC00980800200800024082B0064B5A6942F0BF
:1003BC0001025A615B6903F001030193019B02B0D6
:1003CC00704700BF0010024070B588B00024049440
:1003DC00059406940794254B9A6942F010029A6191
:1003EC009A6902F010020092009A9A6942F0200277
:1003FC009A619A6902F020020192019A9A6942F07C
:10040C0004029A619A6902F004020292029A9A69B1
:10041C0042F008029A619B6903F008030393039B63
:10042C00134E01224FF40051304601F092F94FF473
:10043C00005304930125059506950323079304A9FE
:10044C00304601F06FF804950594069404A9094808
:10045C0001F068F84FF6E07304930594069404A930
:10046C00054801F05FF808B070BD00BF00100240F5
:10047C000010014000080140000C0140F8B5054691
:10048C000E46174601F05EF9012811D1044647B11A
:10049C00012F0ED13146284601F054F904460128AB
:1004AC0007E03146284601F04DF90128F9D000E06B
:1004BC0000242046F8BD72B6FEE700B595B00023C7
:1004CC000D930F9310930593069307930893099339
:1004DC00019302930393049301210A914FF4803208
:1004EC000B920C930E9102211191129213930AA864
:1004FC0001F04CF9C0B90F23059302230693002198
:10050C0007914FF480630893099105A801F07CFBD7
:10051C0060B9022301930023039301A801F050FC5E
:10052C0030B915B05DF804FBFFF7C5FFFFF7C3FF4B
:10053C00FFF7C1FF10B500F09BFA754C204602F096
:10054C0013FCFFF7BAFFFFF73FFFFFF72DFF00F09B
:10055C00F9F9FFF76BFE01226E49204602F0ECF828
:10056C006D4802F031FD6D4C204600F087FD0422F1
:10057C006B49204600F040FC02F002FA02F030FB1E
:10058C00684A107058B9684802F01EFD674B00228B
:10059C001A6002F081FB604802F016FD39E06448F5
:1005AC0002F012FDF5E7634B01221A7152E0614B28
:1005BC0002221A7155E05F4B01225A7158E05D4BD3
:1005CC0002225A715BE05B4B01229A715FE0594B3E
:1005DC0002229A7163E0574B0122DA7167E0554BA6
:1005EC000222DA716BE0534B01221A726FE0514B0D
:1005FC0002221A7273E04F4B01225A7277E04D4B74
:10060C0002225A727CE04B4A0021D15401331F2B39
:10061C00F9DD434B5B88092B02D8464A0121117046
:10062C00B3F57A6F02D9434B02221A703C4B9B886C
:10063C00092B02D83F4A01219170B3F57A6F02D988
:10064C003C4B02229A70012220213B48FFF716FFF7
:10065C000128A8D0012280213748FFF70FFF01287D
:10066C00A5D0012211463548FFF708FF0128A2D07A
:10067C00012240213048FFF701FF01289FD00122C1
:10068C004FF400712C48FFF7F9FE01289BD0012292
:10069C004FF400612848FFF7F1FE012897D00022A3
:1006AC004FF480712448FFF7E9FE012893D0002213
:1006BC004FF480612048FFF7E1FE01288FD0002223
:1006CC004FF480511C48FFF7D9FE01288BD0002233
:1006DC004FF400511848FFF7D1FE012887D00022B3
:1006EC004FF480411448FFF7C9FE012883D0002243
:1006FC004FF400411048FFF7C1FE01283FF47FAFD3
:10070C000C4802F095FA074B187000237FE700BFE6
:10071C00100A00200C090020084A00086808002074
:10072C00DC080020E4080020104A0008B401224232
:10073C002C4A0008E8080020000C01400008014089
:10074C0010B586B0002302930393049305930268BB
:10075C00164B9A4201D006B010BD03F560439A695E
:10076C0042F480529A619A6902F480520092009A83
:10077C009A6942F004029A619B6903F004030193A5
:10078C00019BA02302930223039303230593084C9C
:10079C0002A9204600F0C6FE4023029300230393D7
:1007AC00049302A9204600F0BDFED4E700300140BE
:1007BC000008014000B583B00F4B9A6942F001026A
:1007CC009A619A6902F001020092009ADA6942F089
:1007DC008052DA61DB6903F080530193019B0520A1
:1007EC0000F0C2FC054A536823F0E06343F0007349
:1007FC00536003B05DF804FB0010024000000140A0
:10080C00FEE7FEE7FEE7FEE7FEE77047704770473E
:10081C0008B500F03FF908BD08B5024800F0E0FD4E
:10082C0008BD00BF9808002008B5024800F075F913
:10083C0008BD00BF6808002000B583B0264B1B68BC
:10084C00DA6812F0200F1ED05B68DBB28DF807302F
:10085C009DF80730DBB2082B1BD0204B1B78FF2BED
:10086C002DD09DF807101E4AD15401330021D154CC
:10087C001A4A13709DF80730DBB2212B28D0164B87
:10088C001B68184A1A60144801F0DEFF03B05DF8CB
:10089C0004FB124B1B78002BF1D0082000F0B0F8B1
:1008AC00202000F0ADF8082000F0AAF80B4A1378CD
:1008BC00013BDBB213700A4A0021D154DFE7013B44
:1008CC009DF80710064AD154082000F099F8D1E79A
:1008DC00054B01221A70D2E7100A00200C0A0020E6
:1008EC000C090020DFFFFFEF500A002008B503467B
:1008FC000B4A126842B10A4A106803446A46934292
:10090C0006D8074A136008BD054A06491160F2E78C
:10091C0002F092FA0C2303604FF0FF30F3E700BFB4
:10092C0008090020100B00204FF0FF3070474FF4E7
:10093C0000534B6000207047012070470020704727
:10094C007047000008B50A480A4B03604FF4E133C6
:10095C00436000238360C36003610C2242618361A6
:10096C00C36101F0DDFD00B908BDFFF7A4FDFBE795
:10097C00100A00200038014030B587B000230293E4
:10098C0003930493059302681B4B9A4201D007B062
:10099C0030BD03F558439A6942F480429A619A69D2
:1009AC0002F480420092009A9A6942F004029A6121
:1009BC009B6903F004030193019B4FF400730293B2
:1009CC0002230393032405940C4D02A9284600F03E
:1009DC00A9FD4FF48063029300230393049302A9AF
:1009EC00284600F09FFD22462146252000F0CEFB34
:1009FC00252000F0FFFBCAE7003801400008014049
:100A0C0000B583B08DF807004FF47A7301220DF115
:100A1C000701034801F0B3FD03B05DF804FB00BF10
:100A2C00100A002010B504460E4B18784FF47A7358
:100A3C00B3FBF0F30C4A1068B0FBF3F000F0E8FBEA
:100A4C0068B90F2C01D901200AE0002221464FF091
:100A5C00FF3000F09BFB054B1C60002000E00120E8
:100A6C0010BD00BF04000020000000200800002082
:100A7C0008B5074A136843F010031360032000F015
:100A8C0073FB0020FFF7CEFFFFF794FE002008BD9C
:100A9C0000200240034A1168034B1B780B4413607F
:100AAC00704700BF540A002004000020014B186856
:100ABC00704700BF540A0020704708B5436A9A6A11
:100ACC0012F0500F1ED19A6A42F400729A621A68A0
:100ADC00926802F46022B2F5602F03D01846FFF73B
:100AEC00EBFF08BD1A7B002AF8D19A6A22F48072B7
:100AFC009A629A6A12F4805FF0D19A6A42F001020B
:100B0C009A62EBE71B6A1B6B9847EAE7704708B5DC
:100B1C00406AFFF7FBFF08BD704710B50446036839
:100B2C005A6812F0200F18D01A6812F0020F14D065
:100B3C00826A12F0100F03D1826A42F40072826250
:100B4C009A6802F46022B2F5602F38D02046FFF785
:100B5C00B3FF23686FF012021A6023685A6812F010
:100B6C00800F22D01A6812F0040F1ED0A26A12F065
:100B7C00100F03D1A26A42F40052A2629A6802F4E6
:100B8C00E042B2F5E04F31D05A6812F4806F05D1D3
:100B9C009A6802F46022B2F5602F24D0204600F04F
:100BAC00E1FA23686FF00C021A6023685A6812F09D
:100BBC00400F03D01B6813F0010F28D110BD227B0E
:100BCC00002AC3D15A6822F020025A60A36A23F487
:100BDC008073A362A36A13F4805FB7D1A36A43F056
:100BEC000103A362B2E7227B002AD7D15A6822F014
:100BFC0080025A60A36A23F48053A362A36A13F49D
:100C0C00807FCBD1A36A43F00103A362C6E7A36A3A
:100C1C0043F48033A3622046FFF77EFF23686FF016
:100C2C0001021A60CAE7704708B5406A836A43F04C
:100C3C0040038362C36A43F00403C362FFF7F3FF0C
:100C4C0008BD000030B482B00022019290F824203C
:100C5C00012A00F08B800346012280F824204A6888
:100C6C00062A29D80568686B02EB8202053A1F2414
:100C7C00944020EA04000C6804FA02F202436A630E
:100C8C000A68092A38D91D68E86802EB42021E3A44
:100C9C000724944020EA04008C6804FA02F2024310
:100CAC00EA600A68103A012A34D90020002283F83D
:100CBC00242002B030BC70470C2A0ED80568286B73
:100CCC0002EB8202233A1F24944020EA04000C68B1
:100CDC0004FA02F202432A63D2E70568E86A02EBDF
:100CEC008202413A1F24944020EA04000C6804FA62
:100CFC0002F20243EA62C3E71D68286902EB420272
:100D0C000724944020EA04008C6804FA02F202439F
:100D1C002A61C6E71A681648824205D09A6A42F0E0
:100D2C0020029A620120C1E7906810F4000F1BD1D9
:100D3C00906840F4000090600A68102A01D00020EE
:100D4C00B4E70C4A12680C49A1FB0212920C02EB9C
:100D5C0082025200019202E0019A013A0192019A38
:100D6C00002AF9D10020A1E700209FE70220A0E78C
:100D7C00002401400000002083DE1B4330B583B00B
:100D8C000023019303689A6812F0010F2DD10446D9
:100D9C009A6842F001029A60154B1B68154AA2FB37
:100DAC0003239B0C0193019B1BB1019B013B019302
:100DBC00F9E7FFF77BFE054623689B6813F0010FEC
:100DCC0011D1FFF773FE431B022BF5D9A36A43F035
:100DDC001003A362E36A43F00103E362002384F887
:100DEC002430012002E0002000E0002003B030BDE0
:100DFC000000002083DE1B43F8B504460D46164662
:100E0C00036844498B4259D0434A934256D094F8D4
:100E1C002430012B7CD0012384F824302046FFF7AA
:100E2C00ADFF074600286ED1A36A23F4706323F04C
:100E3C00010343F48073A3622268374B9A4244D077
:100E4C00A36A23F48013A362536813F4806F05D054
:100E5C00A36A23F4405343F48053A362A36A13F4AC
:100E6C00805F48D0E36A23F00603E362002384F832
:100E7C002430236A294A9A62236A294ADA62236A4D
:100E8C00284A1A6323686FF002021A60226893687A
:100E9C0043F480739360216833462A464C31206AB0
:100EAC0000F018FA23689A6802F46022B2F5602FF9
:100EBC0024D09A6842F480129A6027E0154B5B6844
:100ECC0013F4702FA3D0012720E0A3F580635B6897
:100EDC0013F4702FB4D0A36A43F48013A3620D4BA8
:100EEC005B6813F4806FB9D0A36A23F4405343F4C6
:100EFC008053A362B2E70023E362B7E79A6842F437
:100F0C00A0029A6002E0002384F824303846F8BD31
:100F1C000227FBE70024014000280140C70A000813
:100F2C001B0B0008350C000838B503689A6812F0E2
:100F3C00010F01D1002038BD04469A6822F001024D
:100F4C009A60FFF7B3FD054623689B6813F0010F09
:100F5C000ED0FFF7ABFD431B022BF5D9A36A43F070
:100F6C001003A362E36A43F00103E3620120E2E7AA
:100F7C000020E0E700287BD070B50446836A002B84
:100F8C004DD02046FFF7D0FFA36A13F0100369D1B0
:100F9C00002867D1A26A22F4885222F0020242F0A1
:100FAC000202A2626268E1690A43217B42EA4102C1
:100FBC00A568B5F5807F02D0012D36D01D46267D63
:100FCC00012E35D02668716821F46941294371607E
:100FDC002568AE68274931401143A960A168B1F575
:100FEC00807F01D0012902D12369013B1B052568B3
:100FFC00E96A21F470010B43EB62236899681E4B7C
:10100C000B409A4225D0A36A23F0120343F010033D
:10101C00A362E36A43F00103E362012027E0C362A9
:10102C0080F82430FFF758F9ABE74FF48075C6E72A
:10103C0031B9A169013945EA413141F40065C1E793
:10104C00A16A41F02001A162E16A41F00101E16273
:10105C00B8E70023E362A36A23F0030343F0010320
:10106C00A36204E0A36A43F01003A362012070BDE5
:10107C0001207047FDF7E1FFFE0E1FFF70B582B037
:10108C000023019390F82430012B67D004460123F0
:10109C0080F82430FFF748FF054628B1002384F878
:1010AC002430284602B070BDA36A23F4885323F081
:1010BC00020343F00203A362294B1E68022000F0D6
:1010CC0009FFB6FBF0F676000196019B1BB1019B64
:1010DC00013B0193F9E72046FFF750FE2268936825
:1010EC0043F008039360FFF7E1FC064623689A6817
:1010FC0012F0080F0FD0FFF7D9FC801B0A28F5D986
:10110C00A36A23F0120343F01003A362002384F8B4
:10111C0024300125C5E79A6842F004029A60FFF773
:10112C00C5FC064623689B6813F0040F0FD0FFF72D
:10113C00BDFC801B0A28F5D9A36A23F0120343F0E7
:10114C001003A362002384F824300125A9E7A36AC5
:10115C0023F0030343F00103A3629FE70225A0E7FA
:10116C000000002070470000074AD36823F4E063B6
:10117C001B041B0C000200F4E060034343F0BF634C
:10118C0043F40033D360704700ED00E030B4174BEC
:10119C00DB68C3F30223C3F10704042C28BF042427
:1011AC001D1D062D18D9033B4FF0FF3505FA04F42D
:1011BC0021EA0401994005FA03F322EA03031943D7
:1011CC0000280BDB0901C9B200F1604000F5614059
:1011DC0080F8001330BC70470023E5E700F00F00E7
:1011EC000901C9B2024B1954F4E700BF00ED00E04D
:1011FC0014ED00E0002807DB00F01F02400901237A
:10120C009340024A42F82030704700BF00E100E0F2
:10121C000138B0F1807F0AD2064B5860064AF021A3
:10122C0082F823100020986007221A607047012072
:10123C00704700BF10E000E000ED00E070B4066CF9
:10124C00C56B0124B4406C60046863604368102B68
:10125C0005D0036899600368DA6070BC7047036856
:10126C009A600368D960F8E760B310B4024601686D
:10127C00154B0B441548A0FB03031B099B0013647F
:10128C00134BD363022382F82130086820F47F507B
:10129C0020F03000536894682343D46823431469C6
:1012AC0023435469234394692343D469234303435D
:1012BC000B6000209063012382F8213082F820001B
:1012CC0010BC704701207047F8FFFDBFCDCCCCCCD3
:1012DC000000024038B5044690F82000012831D0B7
:1012EC00012084F8200094F82100012804D0002368
:1012FC0084F82030022038BD022084F82100002020
:10130C00A0632568286820F0010028602046FFF7BC
:10131C0095FFE36A5BB12268136843F00E03136018
:10132C002268136843F0010313600020E3E722688E
:10133C00136823F0040313602268136843F00A0354
:10134C001360EDE70220D6E708B590F82130022BA8
:10135C0003D004238363012008BD0268136823F0C3
:10136C000E0313600268136823F001031360036813
:10137C00194A934214D0143293421FD01432934220
:10138C001ED0143293421ED0143293421ED014320B
:10139C00934202D04FF0807203E04FF4801200E0D1
:1013AC0001220E4B5A60012380F82130002380F873
:1013BC002030436B6BB198470020CDE71022F0E74B
:1013CC004FF48072EDE74FF48052EAE74FF480322D
:1013DC00E7E70020C0E700BF080002400000024021
:1013EC0038B5C36B1A6804682568016C04238B40FC
:1013FC00134235D015F0040F32D0236813F0200FB0
:10140C0003D1236823F0040323600368434A934207
:10141C0014D01432934218D01432934217D0143291
:10142C00934217D01432934217D01432934202D005
:10143C004FF0806203E04FF4800200E00422384B4E
:10144C005A60C36A03B1984738BD4022F7E74FF49E
:10145C008062F4E74FF48042F1E74FF48022EEE72C
:10146C0002238B4013423CD015F0020F39D0236875
:10147C0013F0200F06D1236823F00A032360012305
:10148C0080F821300368254A934214D014329342D9
:10149C001CD0143293421BD0143293421BD0143202
:1014AC0093421BD01432934202D04FF0007203E0EF
:1014BC004FF4001200E00222194B5A60002380F80E
:1014CC002030836A002BBFD09847BDE72022F3E77A
:1014DC004FF40072F0E74FF40052EDE74FF4003296
:1014EC00EAE7082303FA01F11142ADD015F0080F19
:1014FC00AAD0236823F00E032360026CC16B012376
:10150C0003FA02F24A60836380F82130002380F8EA
:10151C002030036B002B97D0984795E708000240CA
:10152C0000000240F0B482B000252C46A3E07F4FAF
:10153C00BB4210D007D97E4FBB420CD007F5803789
:10154C00BB4208D013E0A7F58017BB4203D007F5C8
:10155C007027BB4207D18B68002B58D0012B51D080
:10156C004261082503E0A7F58017BB42F3D0FF2E9C
:10157C004FD88446FF2E4FD8A200DCF800300F273E
:10158C00974023EA070305FA02F21343CCF8003024
:10159C004B6813F0805F6DD0664B9A6942F0010284
:1015AC009A619B6903F001030193019BA208971CAC
:1015BC00614B53F8273004F00307BF004FF00F0CBA
:1015CC000CFA07FC23EA0C0C5C4B98422AD003F56E
:1015DC008063984200F08A8003F58063984200F0A3
:1015EC00878003F5806398421AD004231BE0CD68F2
:1015FC00BDE7CD680435BAE7CD680835B7E7CD68E7
:10160C000C35B4E702610825B1E70025AFE70425E6
:10161C00ADE700F1040CADE7A4F108029200ACE7D1
:10162C00032300E00023BB4043EA0C030232424F89
:10163C0047F822304B6813F4803F5BD0404A136864
:10164C00334313604B6813F4003F59D03C4A536842
:10165C00334353604B6813F4801F57D0384A936858
:10166C00334393604B6813F4001F55D0344AD3684E
:10167C001E43D66001340B6833FA04F252D00122B7
:10168C00A24003EA020632EA0303F3D14B68122BA1
:10169C003FF64DAF122B3FF66AAF01A757F823F078
:1016AC0063150008FB15000805160008171600083E
:1016BC007B1500087B1500087B1500087B150008BE
:1016CC007B1500087B1500087B1500087B150008AE
:1016DC007B1500087B1500087B1500087B1500089E
:1016EC007B150008FF1500080B16000801239AE76C
:1016FC00022398E7124A136823EA06031360A1E752
:10170C000F4A536823EA06035360A3E70C4A936815
:10171C0023EA06039360A5E7094AD36823EA060681
:10172C00D660A7E702B0F0BC704700BF00002210E3
:10173C000000311000100240000001400008014080
:10174C00000401408368194201D001207047002039
:10175C0070470AB1016170470904016170470000CC
:10176C0082B0084B1B68084AA2FB03235B0A00FBF0
:10177C0003F3019300BF019B5A1E0192002BF9D178
:10178C0002B0704700000020D34D6210002800F01A
:10179C00F18170B582B00446036813F0010F2CD0B0
:1017AC00AA4B5B6803F00C03042B1DD0A74B5B68A2
:1017BC0003F00C03082B12D06368B3F5803F41D0C3
:1017CC00002B55D103F1804303F504331A6822F43E
:1017DC0080321A601A6822F480221A6037E09B4B20
:1017EC005B6813F4803FE7D0984B1B6813F4003F01
:1017FC0003D06368002B00F0BF81236813F0020F45
:10180C0075D0924B5B6813F00C0F5FD08F4B5B68FD
:10181C0003F00C03082B54D02369002B00F08980B3
:10182C008B4B01221A60FFF741F90546874B1B6869
:10183C0013F0020F74D1FFF739F9401B0228F5D9C8
:10184C0003209EE1814A136843F48033136063687C
:10185C0043B3FFF72BF905467C4B1B6813F4003F91
:10186C00CBD1FFF723F9401B6428F5D9032088E17D
:10187C00B3F5A02F09D0754B1A6822F480321A6088
:10188C001A6822F480221A60E1E703F18043A3F581
:10189C003C331A6842F480221A601A6842F480328F
:1018AC001A60D4E7FFF702F90546684B1B6813F47E
:1018BC00003FA2D0FFF7FAF8401B6428F5D90320AB
:1018CC005FE1624B5B6813F4803FA5D15F4B1B68F3
:1018DC0013F0020F03D02369012B40F04F815B4AB8
:1018EC00136823F0F803616943EAC10313602368AA
:1018FC0013F0080F32D0A369002B45D0554B0122B1
:10190C001A60FFF7D3F80546504B5B6A13F0020FD1
:10191C0021D1FFF7CBF8401B0228F5D9032030E189
:10192C004A4A136823F0F803616943EAC103136060
:10193C00DDE7474B00221A60FFF7B8F80546434B2A
:10194C001B6813F0020FD2D0FFF7B0F8401B02282F
:10195C00F5D9032015E10120FFF702FF236813F0EE
:10196C00040F00F09780394BDB6913F0805F1DD1B9
:10197C00364BDA6942F08052DA61DB6903F080534E
:10198C000193019B012512E0324B00221A60FFF7F4
:10199C008DF805462D4B5B6A13F0020FDED0FFF776
:1019AC0085F8401B0228F5D90320EAE000252A4BD4
:1019BC001B6813F4807F11D0E368012B22D0002B1D
:1019CC0038D103F1804303F504331A6A22F0010283
:1019DC001A621A6A22F004021A6218E01E4A13688C
:1019EC0043F480731360FFF761F806461A4B1B68CB
:1019FC0013F4807FE0D1FFF759F8801B6428F5D9E8
:101A0C000320BEE0114A136A43F001031362E3683A
:101A1C0073B3FFF74BF806460C4B1B6A13F0020F1F
:101A2C0037D1FFF743F8801B41F288339842F3D942
:101A3C000320A6E0052B11D0044B1A6A22F00102F8
:101A4C001A621A6A22F004021A62E0E700100240DD
:101A5C000000424280044242007000404D4B1A6A22
:101A6C0042F004021A621A6A42F001021A62CEE7CC
:101A7C00FFF71CF80646474B1B6A13F0020F08D001
:101A8C00FFF714F8801B41F288339842F3D90320F6
:101A9C0077E0E5B9E369002B72D03E4A526802F058
:101AAC000C02082A56D0022B17D03B4B00221A608E
:101ABC00FEF7FCFF0446374B1B6813F0007F47D042
:101ACC00FEF7F4FF001B0228F5D9032059E0314A38
:101ADC00D36923F08053D361DCE72F4B00221A60CB
:101AEC00FEF7E4FF05462B4B1B6813F0007F06D076
:101AFC00FEF7DCFF401B0228F5D9032041E0236AE6
:101B0C00B3F5803F1AD023494B6823F47413226A2F
:101B1C00606A024313434B601F4B01221A60FEF7AD
:101B2C00C5FF04461B4B1B6813F0007F0ED1FEF75C
:101B3C00BDFF001B0228F5D9032022E0154A53688B
:101B4C0023F40033A1680B435360DCE7002018E05A
:101B5C00002016E0012B16D00E4B5B6803F480318D
:101B6C00226A914211D103F47013626A93420ED12E
:101B7C00002006E001207047012002E0012000E077
:101B8C00002002B070BD0120FBE70120F9E7012025
:101B9C00F7E700BF001002406000424286B0164BCF
:101BAC000FCB0DF1180C0CE90F0040F20123ADF82E
:101BBC000430124B5B6803F00C02082A02D0104868
:101BCC0006B07047C3F38342624412F8102C13F42E
:101BDC00803F0CD0094B5B68C3F34043634413F85C
:101BEC00143C074800FB02F0B0FBF3F0E8E70548B3
:101BFC0000FB02F0E4E700BF6C4A00080010024052
:101C0C0000127A0000093D00002800F0A08070B599
:101C1C000D460446524B1B6803F007038B420BD254
:101C2C004F4A136823F007030B431360136803F048
:101C3C0007038B4240F08D80236813F0020F17D0FE
:101C4C0013F0040F04D0474A536843F4E063536025
:101C5C00236813F0080F04D0424A536843F46053CE
:101C6C005360404A536823F0F003A1680B43536060
:101C7C00236813F0010F31D06368012B20D0022BA5
:101C8C0025D0384A126812F0020F64D035494A68E0
:101C9C0022F0030213434B60FEF708FF0646314B5C
:101CAC005B6803F00C036268B3EB820F16D0FEF78F
:101CBC00FDFE801B41F288339842F0D9032045E0A9
:101CCC00284A126812F4003FE0D101203EE0254A78
:101CDC00126812F0007FD9D1012037E0204B1B682D
:101CEC0003F00703AB420AD91D4A136823F007031C
:101CFC002B431360136803F00703AB422DD1236809
:101D0C0013F0040F06D0174A536823F4E063E1681C
:101D1C000B435360236813F0080F07D0114A536824
:101D2C0023F46053216943EAC1035360FFF736FF84
:101D3C000C4B5B68C3F303130B4AD35CD8400B4BBF
:101D4C0018600B4B1868FEF76DFE002070BD01206B
:101D5C0070470120FAE70120F8E70120F6E700BF01
:101D6C000020024000100240544A000800000020ED
:101D7C0008000020014B1868704700BF00000020CD
:101D8C0008B5FFF7F7FF044B5B68C3F30223034A64
:101D9C00D35CD84008BD00BF00100240644A000864
:101DAC0008B5FFF7E7FF044B5B68C3F3C223034A94
:101DBC00D35CD84008BD00BF00100240644A000844
:101DCC0070B582B00446036813F0010F34D03E4B5B
:101DDC00DB6913F0805F47D13B4BDA6942F08052EC
:101DEC00DA61DB6903F080530193019B0125374BCA
:101DFC001B6813F4807F39D0334B1B6A13F4407388
:101E0C0011D0626802F440729A420CD02E4A136AC6
:101E1C0023F440702E4901260E6000260E601062DD
:101E2C0013F0010F36D1284A136A23F4407361680A
:101E3C000B431362002D3ED1236813F0020F06D022
:101E4C00214A536823F44043A1680B435360236831
:101E5C0013F0100F34D01C4A536823F48003E1684C
:101E6C000B43536000202CE00025C0E7174A136891
:101E7C0043F480731360FEF719FE0646134B1B6880
:101E8C0013F4807FB8D1FEF711FE801B6428F5D9BE
:101E9C00032016E0FEF70AFE06460B4B1B6A13F0F6
:101EAC00020FC0D1FEF702FE801B41F2883398422C
:101EBC00F3D9032005E0D36923F08053D361BBE74A
:101ECC00002002B070BD00BF001002400070004046
:101EDC004004424210B586B00446364B0FCB0DF190
:101EEC00180C0CE90F0040F20123ADF80430022C61
:101EFC0052D0102C04D0012C2CD0002006B010BDD8
:101F0C002D4B5A68186810F08070F7D0C2F38343D9
:101F1C0006A90B4413F8100C12F4803F16D0264B74
:101F2C005B68C3F340430B4413F8142C234BB3FBF3
:101F3C00F2F300FB03F0204B5B6813F4800FDDD150
:101F4C0040001F4BA3FB00304008D7E71D4B03FBA1
:101F5C0000F0F0E7184B1B6A40F202321A40B2F55F
:101F6C00817F24D003F44073B3F5007F04D0B3F524
:101F7C00407F09D00020C1E70F4A526A12F0020FCD
:101F8C00F5D049F64040B9E70B4B186810F4003017
:101F9C00B4D04FF22440B1E7FFF702FF064B5B6869
:101FAC00C3F3813301335B00B0FBF3F0A6E74FF4CE
:101FBC000040A3E76C4A00080010024000127A00AF
:101FCC00ABAAAAAA00093D002DE9F04782B005464C
:101FDC00884617461E46FEF769FD0A9B1B1A03EB43
:101FEC000609FEF763FD82462A4B1B68C3F3CB330D
:101FFC0009FB03F301932B689C6838EA04030CBFBC
:10200C0001240024BC4240D0B6F1FF3FF3D0FEF7D0
:10201C004DFDA0EB0A0048450AD2B9F1000F07D0DC
:10202C00019A02B14A46019B013B01939146E2E7BA
:10203C002A68536823F0E00353606B68B3F5827F22
:10204C000BD0AB6AB3F5005F14D0012385F8513087
:10205C00002385F85030032018E0AB68B3F5004F2F
:10206C0002D0B3F5806FECD12A68136823F04003DB
:10207C001360E6E72A68136823F4005313602A6898
:10208C00136843F400531360DFE7002002B0BDE88F
:10209C00F08700BF0000002010B582B004460B464C
:1020AC00009200228021FFF78FFF08B902B010BD0B
:1020BC00636D43F0200363650320F7E7002856D0D7
:1020CC0010B50446436A33B94368B3F5827F05D033
:1020DC000023C36102E00023036143610023A36278
:1020EC0094F85130002B3CD0022384F851302268F4
:1020FC00136823F040031360636803F48273A268CF
:10210C0002F404421343E26802F4006213432269AE
:10211C0002F002021343626902F001021343A26946
:10212C0002F400721343E26902F038021343226A8C
:10213C0002F080021343A26A02F400522168134396
:10214C000B60638B226803F0040353602268D3692D
:10215C0023F40063D36100206065012384F85130BF
:10216C0010BD84F850302046FEF7EAFABCE7012097
:10217C0070472DE9F04383B01F460A9D90F850300C
:10218C00012B00F01081044688469146012380F80B
:10219C005030FEF78BFC064694F85130DBB2626887
:1021AC00012B0AD0B2F5827F40F0E380A268002AAE
:1021BC0040F0E980042B40F0E880B8F1000F00F00B
:1021CC00E680B9F1000F00F0E480002F00F0E3800E
:1021DC0094F85130DBB2042B02D0052384F8513033
:1021EC0000236365C4F83890E787A787C4F830806C
:1021FC00E786A7862364636423681A6812F0400F8D
:10220C0003D11A6842F040021A60E368B3F5006F1C
:10221C0011D063680BB1012F0BD1226B236812789C
:10222C001A73236B01332363E38E9BB2013B9BB286
:10223C00E38601276BE063680BB1012F0BD1226B96
:10224C0023681288DA60236B02332363E38E9BB21C
:10225C00013B9BB2E38601271CE023689A6812F0CD
:10226C00010F0ED0E28F92B25AB1DA68A36B1A80CA
:10227C00A36B0233A363E38F9BB2013B9BB2E38757
:10228C000127FEF713FC801BA84203D3B5F1FF3FD7
:10229C0040F08380E38E9BB21BB9E38F9BB2002B83
:1022AC0053D023689A6812F0020FD6D0E28E92B205
:1022BC00002AD2D0002FD0D0226B1288DA60236B88
:1022CC0002332363E38E9BB2013B9BB2E386002770
:1022DC00C3E723689A6812F0010F0ED0E28F92B216
:1022EC005AB1DA68A36B1A70A36B0133A363E38F43
:1022FC009BB2013B9BB2E3870127FEF7D7FB831B05
:10230C00AB4202D3B5F1FF3F49D1002D49D0E38E4A
:10231C009BB213B9E38F9BB2BBB123689A6812F0DE
:10232C00020FD6D0E28E92B2002AD2D0002FD0D09B
:10233C00226B12781A73236B01332363E38E9BB2E7
:10234C00013B9BB2E3860027C3E732462946204671
:10235C00FFF7A2FE48B9A36863B901932368DA6852
:10236C0001929B680193019B04E02023636501208B
:10237C0000E00220012384F85130002384F850300F
:10238C0003B0BDE8F0830220F4E70220F2E701205D
:10239C00F0E70120EEE70120ECE70320EAE7032059
:1023AC00E8E70320E6E70220EAE70268D36823F4B3
:1023BC009073D3600268536923F0010353612023A7
:1023CC0080F83A30704790F83930DBB2212B01D0CD
:1023DC00022070478368B3F5805F17D0036A5A1CDC
:1023EC0002621A7803685A60C38C9BB2013B9BB2A1
:1023FC00C3844BB90268D36823F08003D3600268AE
:10240C00D36843F04003D360002070470369002B6E
:10241C00E4D1036A1B880268C3F308035360036AA0
:10242C0002330362E0E7000010B50446026813694A
:10243C0023F44053C1680B4313618368026913434F
:10244C0042691A430168CB6823F4B05323F00C03A0
:10245C001343CB600268536923F4407381690B43C7
:10246C0053610268124B9A421FD0FFF789FC00EBB4
:10247C00800303EB830362689200B3FBF2F20D4816
:10248C00A0FB02314909642303FB11231B013233E6
:10249C00A0FB03235B0903F0F00202EB011203F033
:1024AC000F03216813448B6010BDFFF779FCDEE746
:1024BC00003801401F85EB512DE9F84305460F46C6
:1024CC0016469946DDF820802C68246837EA040308
:1024DC000CBF01240024B4421FD1B8F1FF3FF3D04C
:1024EC00B8F1000F05D0FEF7E1FAA0EB090040456A
:1024FC00EAD92A68D36823F4D073D3602A68536965
:10250C0023F001035361202385F8393085F83A30E4
:10251C00002385F83830032000E00020BDE8F88364
:10252C0058B310B5044690F839300BB3242384F813
:10253C0039302268D36823F40053D3602046FFF768
:10254C0073FF2268136923F4904313612268536963
:10255C0023F02A0353612268D36843F40053D360F9
:10256C000020E063202384F8393084F83A3010BD21
:10257C0080F83830FEF700FAD8E7012070472DE9D3
:10258C00F04182B01E4690F83930DBB2202B54D18A
:10259C0004460D469046002953D0002A53D090F89B
:1025AC003830012B51D0012380F838300023C3631D
:1025BC00212380F83930FEF779FA0746A4F82480F5
:1025CC00A4F82680A368B3F5805F05D04FF000080F
:1025DC00002384F8383012E0236913B14FF000085F
:1025EC00F6E7A8460025F3E738F8023B2268C3F368
:1025FC0008035360E28C92B2013A92B2E284E38C0B
:10260C009BB273B100963B46002280212046FFF717
:10261C0053FFE0B9002DE7D015F8012B23685A6061
:10262C00E8E700963B46002240212046FFF744FF96
:10263C0078B9202384F8393000E0022002B0BDE8DC
:10264C00F0810120FAE70120F8E70220F6E70320E9
:10265C00F4E70320F2E72DE9F04182B01E4690F832
:10266C003A30DBB2202B5BD104460D469046002954
:10267C005AD0002A5AD090F83830012B58D0012368
:10268C0080F838300023C363222380F83A30FEF7F9
:10269C000DFA0746A4F82C80A4F82E80A368B3F595
:1026AC00805F05D04FF00008002384F8383017E025
:1026BC00236913B14FF00008F6E7A8460025F3E7AD
:1026CC0023685B68C3F3080328F8023B03E0236824
:1026DC005B682B700135E28D92B2013A92B2E285C1
:1026EC00E38D9BB2BBB100963B46002220212046D5
:1026FC00FFF7E2FEF0B9002DE2D0A368B3F5805FDE
:10270C00E5D013B92369002BE1D023685B6803F093
:10271C007F032B70DEE7202384F83A30002000E0A2
:10272C00022002B0BDE8F0810120FAE70120F8E7B1
:10273C000220F6E70320F4E790F83A30DBB2202BC6
:10274C0020D109B312B390F83830012B20D081621C
:10275C008285C2850023C363222280F83A2080F848
:10276C0038300168CA6842F48072CA6001684A69EC
:10277C0042F001024A610168CA6842F02002CA6054
:10278C00184670470220704701207047012070479F
:10279C0002207047704708B50168CA6822F04002F1
:1027AC00CA60202280F83920FFF7F4FF002008BD12
:1027BC00704708B590F83A30DBB2222B41D18368D0
:1027CC00B3F5805F14D0826AB3F5805F02D0E3B9B1
:1027DC000369D3B903685B681370836A013383623E
:1027EC00C38D9BB2013B9BB2C385A3B1002008BD36
:1027FC000269002AE7D1826A03685B68C3F30803A5
:10280C001380836A02338362EAE703685B6803F030
:10281C007F031370E1E70268D36823F02003D360D1
:10282C000268D36823F48073D3600268536923F081
:10283C0001035361202380F83A30FFF7B9FF0020E1
:10284C00D5E70220D3E7704710B504460268136839
:10285C00D168526913F00F0005D113F0200F02D08C
:10286C0011F0200F13D128B112F0010213D111F481
:10287C00907F10D113F0800F02D011F0800F6CD12B
:10288C0013F0400F02D011F0400F6AD110BD20465A
:10289C00FFF78FFFFAE713F0010F06D011F4807FDA
:1028AC0003D0E06B40F00100E06313F0040F04D0A0
:1028BC001AB1E06B40F00200E06313F0020F04D099
:1028CC001AB1E06B40F00400E06313F0080F07D07E
:1028DC0011F0200F00D11AB1E26B42F00802E26352
:1028EC00E26B002AD2D013F0200F02D011F0200F8F
:1028FC0021D123685B6903F04003E26B12F0080FEF
:10290C0000D123B32046FFF750FD23685A6912F01B
:10291C00400F18D05A6922F040025A61636B73B1B0
:10292C00124A5A63606BFEF70FFD0028AED0606B45
:10293C00436B9847AAE72046FFF73BFFD9E72046B1
:10294C00FFF781FFA2E72046FFF77DFF9EE72046B9
:10295C00FFF779FF0023E36398E72046FFF733FD89
:10296C0094E72046FFF717FF90E700BF7D2900088A
:10297C0008B5406A0023C385C384FFF764FF08BD14
:10298C002DE9F0438DB04E4B9A6942F004029A61E6
:10299C009A6902F004020192019A9A6942F00402C7
:1029AC009A619A6902F004020292029A9A6942F0C0
:1029BC0004029A619A6902F004020392039A9A69DA
:1029CC0042F004029A619A6902F004020492049A99
:1029DC009A6942F004029A619A6902F00402059223
:1029EC00059A9A6942F010029A619A6902F01002F3
:1029FC000692069A9A6942F480529A619B6903F492
:102A0C0080530793079B202308934FF00208CDF8BF
:102A1C00248001270A9703240B942A4D0DEB030104
:102A2C002846FEF77FFD4023089308A92846FEF7A9
:102A3C0079FD8023089308A92846FEF773FDCDF88D
:102A4C00208009970A970B9408A92846FEF76AFD7F
:102A5C004FF40049CDF8209008A92846FEF762FDF6
:102A6C00042308930026099608A92846FEF75AFD68
:102A7C00154C164B23604FF482736360A660E660BE
:102A8C00266166614FF40073A3611023E361266233
:102A9C000723E3622046FFF711FB2268136843F01B
:102AAC0040031360324649462846FEF752FE3A462A
:102ABC0041462846FEF74DFE0DB0BDE8F08300BF41
:102ACC000010024000080140580A0020003001406C
:102ADC0000B587B08DF80F004FF47A730093012383
:102AEC000DF117020DF10F010348FFF742FB9DF8A2
:102AFC00170007B05DF804FB580A002070B50446B7
:102B0C000D460A4E002202213046FEF722FE2046D8
:102B1C00FFF7DEFF04462846FFF7DAFF0122022109
:102B2C003046FEF716FE204670BD00BF000801407F
:102B3C0038B50446094D002202212846FEF709FE4D
:102B4C002046FFF7C5FFFF20FFF7C2FF0446012216
:102B5C0002212846FEF7FDFD204638BD0008014045
:102B6C00F8B504460E461546002202210B48FEF726
:102B7C00F0FD2046FFF7ACFF07460024AC4206D21E
:102B8C00FF20FFF7A5FF30550134E4B2F6E7012230
:102B9C0002210248FEF7DDFD3846F8BD0008014071
:102BAC00F8B505460C461646002202210B48FEF7E6
:102BBC00D0FD2846FFF78CFF07460025B54206D20C
:102BCC0014F8010BFFF784FF0135EDB2F6E7012293
:102BDC0002210248FEF7BDFD3846F8BD0008014051
:102BEC0000B585B0114B93E8030002908DF80C10E2
:102BFC00052202A93020FFF7D3FF052269461020D9
:102C0C00FFF7AEFF0023042B08D804AA1A4412F8CD
:102C1C00102CA52A02D10133DBB2F4E7052B03D12A
:102C2C00002005B05DF804FB0120FAE7804A00089B
:102C3C0038B50446174D00224FF400412846FEF7E4
:102C4C0088FD20222146A020FFF7AAFF01224FF485
:102C5C0000412846FEF77DFD04210E48FEF772FD6B
:102C6C000028F9D10720FFF763FF0446014627200F
:102C7C00FFF744FFFF21E120FFF740FF14F0100F96
:102C8C0006D114F0200F01D1012038BD2020FCE723
:102C9C001020FAE70008014010B5194C00224FF43F
:102CAC0000412046FEF755FD052216493020FFF75E
:102CBC0077FF052214492A20FFF772FF01212120FA
:102CCC00FFF71CFF01212220FFF718FF1A212420F7
:102CDC00FFF714FF12212520FFF710FF0F212620EC
:102CEC00FFF70CFF0E212020FFF708FF01224FF405
:102CFC0000412046FEF72DFD642000F007F810BDC2
:102D0C0000080140904A0008884A000882B00190EF
:102D1C000FE04FF4617013E001F58C3101F5A071F7
:102D2C00104B9B689A42FBDA9942F9DB019B1B1A08
:102D3C000193019B9BB1019BB3F5617FE9D801988D
:102D4C00084B9A686FF0470101FB00210029E3DB77
:102D5C00044B9B689A42E9DD9942F9DDE6E702B043
:102D6C00704700BF10E000E008B5054B1860054B3C
:102D7C001868002302221946806800F02DF908BD5E
:102D8C00B00A00200C00002010B5013801280AD828
:102D9C0014464FF0FF3392B207480068FFF7EFFB81
:102DAC0040B9204610BD00F047F8092303604FF0EE
:102DBC00FF30F7E70520F5E7B00A002008B548B961
:102DCC004FF0FF33012208480068FFF744FC40B97C
:102DDC00012008BD00F030F8092303604FF0FF30EC
:102DEC00F7E70520F5E700BFB00A0020002103E05B
:102DFC000B4B5B58435004310A480B4B42189A4218
:102E0C00F6D30A4A02E0002342F8043B084B9A42EC
:102E1C00F9D3FDF795FD00F015F8FDF78BFB704726
:102E2C00AC4A0008000000204C0800204C08002090
:102E3C00100B0020FEE70000014B1868704700BF24
:102E4C000C00002070B50D4E0D4D761BB61006D043
:102E5C00002455F8043B01349847A642F9D1094E99
:102E6C00094D01F0BFFD761BB61006D0002455F8B5
:102E7C00043B01349847A642F9D170BDA04A000822
:102E8C00A04A0008A84A0008A04A0008F0B4860727
:102E9C0046D0541E002A3CD00346CAB201E0013C85
:102EAC0037D303F8012B9D07F9D1032C2AD9CDB2C6
:102EBC0045EA05250F2C45EA054534D9A4F1100245
:102ECC0022F00F0C03F120071609674403F11002DE
:102EDC0042E9045542E902551032BA42F8D1721C4B
:102EEC0014F00C0F03EB021204F00F0613D0331F77
:102EFC0023F003030433134442F8045B9342FBD1E5
:102F0C0006F003042CB1CAB21C4403F8012B9C42FA
:102F1C00FBD1F0BC704734461346002CF3D1F8E7D4
:102F2C0014460346C1E71A462646E0E7F0B50546C7
:102F3C0089B008460C46012700F01EF902262149EB
:102F4C00AA6B059004AB384404940390AC680797C3
:102F5C0002960691019322B3636E13F0010FB4F93C
:102F6C000C309AB201D1980525D5910406D4626E25
:102F7C0043F4005322F40052A3816266284601AA4E
:102F8C00214600F039FC636E002814BF4FF0FF356A
:102F9C000A25DA0702D4A3899B0506D5284609B071
:102FAC00F0BD284600F082FAD6E7A06D00F0C4FD13
:102FBC00284609B0F0BDA06D00F0BCFDB4F90C3092
:102FCC009AB2D2E79C4A0008024B01461868FFF7F8
:102FDC00ADBF00BF0C0000202DE9F043654D044649
:102FEC00D5F800900F4690461E4683B0B9F1000FFD
:102FFC0003D0D9F83830002B79D0B8F1020F06D0B5
:10300C00B8F1010F00F2A380002EC0F2A080636E15
:10301C00D90752D52146484600F0ECF9216B41B155
:10302C0004F14003994202D0484600F0DFFA002335
:10303C0023630023B4F90C50A36163602B0665D4A1
:10304C0025F44A6525F00305B8F1020FA58164D07B
:10305C0001AB6A462146484600F070FDA38918432F
:10306C00A081002E30D0002F2FD0D9F83830002B73
:10307C0039D0009BC4E90476B342B4F90C30276014
:10308C001CBF43F40063A381B8F1010F04BF43F0EC
:10309C000103A3819AB213F008032CD0D10754D5A5
:1030AC0000217642A661666EA16016F0010627D05B
:1030BC000026304603B0BDE8F083A3899A05A9D455
:1030CC00A06D00F037FDA5E7009E304600F0AEFD88
:1030DC00074600283ED0A38943F08003A381D9F88A
:1030EC003830002BC5D1484600F0E0F9C1E748461E
:1030FC0000F0DCF981E7A360666E16F00106D7D10B
:10310C0093051BD5304603B0BDE8F08348462169D2
:10311C0000F06CFAB4F90C5092E700260023012160
:10312C00626E45F00205A360D70704F14303A58145
:10313C00616123602361E5D4A805E3D4A06D00F0A0
:10314C00FBFC304603B0BDE8F083A660D4E74FF03B
:10315C00FF36D7E7009DB54204D0284600F066FD47
:10316C00074620B94FF0FF36B4F90C50D6E72E467F
:10317C00B1E700BF0C00002020F0030110F00300A9
:10318C00C0F1000051F8043B00F1040C4FEACC0CE8
:10319C006FF000021CBF22FA0CF213434FF0010C2B
:1031AC004CEA0C2C4CEA0C4CA3EB0C0222EA03026A
:1031BC0012EACC1204BF51F8043B0430F4D0C2F133
:1031CC00000102EA0102B2FA82F2C2F11F0200EB24
:1031DC00D200704738B5324B054618680C4610B112
:1031EC00836B002B3CD0B4F90C3018079AB20CD579
:1031FC002169A9B112F0010022D000256069A560F7
:10320C004042A06111B3002038BDD1063FD5520712
:10321C0029D4216943F00803A3819AB20029E9D18A
:10322C0002F42070B0F5007FE4D02846214600F06F
:10323C00B3FCB4F90C3021699AB212F00100DCD164
:10324C00950758BF6069A0600029DCD1120658BFF1
:10325C000846D9D543F040034FF0FF30A38138BD69
:10326C0000F024F9BFE7216B51B104F14002914207
:10327C0004D0284600F0BAF9B4F90C3000222263CD
:10328C000022216923F02403C4E90012C2E70922B9
:10329C0043F040032A604FF0FF30A38138BD00BFDC
:1032AC000C000020024B13B1024800F005B8704727
:1032BC00000000002D350008002301461A46184670
:1032CC0001F07EBAB1F90C202DE9F0410D46110741
:1032DC00804647D46B6842F40062002BAA815EDD05
:1032EC00AC6A002C58D00023D8F80060C8F8003025
:1032FC0093B212F4805256D101234046E969A0479B
:10330C00431C67D0AB89AC6A5F0705D56A682B6B29
:10331C00801A0BB1EB6BC01A0246E96900234046D8
:10332C00A047411C41D1D8F80030002B3DD01D2BBB
:10333C0001D0162B56D100212A69AB89C5E9002191
:10334C0023F40063AB81296BC8F8006021B305F14D
:10335C004003994202D0404600F048F9002028630F
:10336C00BDE8F0812F69BFB193B29A0718BF002353
:10337C002E6808BF6B692F60F61BAB600AE0334602
:10338C003A466C6A4046E969A047041EA6EB04065F
:10339C00274417DD002EF2DC0020BDE8F081EB6B3A
:1033AC00002B9DDCF8E7286DAEE70021B5F90C3059
:1033BC002A6923F40063AB81DB04C5E90021C2D583
:1033CC002865C0E7AB894FF0FF3043F04003AB8179
:1033DC00BDE8F081D8F80030002B93D01D2B06D01F
:1033EC00162B04D0AB8943F04003AB81D5E7C8F86A
:1033FC000060D1E738B50C46054608B1836BA3B124
:10340C00B4F90C00B8B1636EDB0701D4810515D596
:10341C0028462146FFF756FF636E0546DA0702D4AD
:10342C00A3899B050ED5284638BD00F03FF8B4F9AA
:10343C000C000028E7D10546284638BDA06D00F0E9
:10344C0079FBE5E7A06D00F077FB284638BD00BF9F
:10345C00002310B50446C0E90033C0E90433818170
:10346C00C281194683604366836108225C30FFF792
:10347C000DFD07480749084A084BC4E90740C4E951
:10348C000912E36204F15800BDE8104000F04EBB95
:10349C001547000839470008794700089947000884
:1034AC00014900F01FBB00BF7D48000810B5044661
:1034BC00134800F03FFBA26BEAB90320114904F555
:1034CC003B73C4F8E832C4E9B820E16360680421B6
:1034DC00FFF7BEFFA06801220921FFF7B9FFE068E2
:1034EC0002221221FFF7B4FF01230548A363BDE8B4
:1034FC00104000F021BB0248BDE8104000F01CBB9E
:10350C00F40A0020AD340008014800F013BB00BFE2
:10351C00080B0020014800F00FBB00BF080B002077
:10352C0038B5084B084D5B1B9C1007D0043B1D4461
:10353C00013C55F804399847002CF9D1BDE83840C6
:10354C0001F056BAAC4A0008A84A0008F8B50C4677
:10355C00234F064600F0CAFEBB68C4F57E615D6869
:10356C000F3125F003054B1923F47F6323F00F0370
:10357C00A3F58054B4F5805F07DB0021304601F0E1
:10358C00B1F8BB682B44984204D0304600F0B4FE2E
:10359C000020F8BD3046614201F0A4F801300DD096
:1035AC00104AB96813682D1B45F0010530461B1BEA
:1035BC004D60136000F0A0FE0120F8BD00213046E4
:1035CC0001F090F8BA68831A0F2BDEDD064943F040
:1035DC0001030C680349001B53600860D5E700BF6A
:1035EC003C040020B40A00204408002000295FD0CD
:1035FC00F8B50C46064600F079FE54F8043CDFF8AA
:10360C00F4C1A4F1080023F001014218DCF80870A1
:10361C005568974225F0030500F08980DF07556057
:10362C0034D454F8087C0CF10804C01B836839446A
:10363C00A3426AD057197F68D0F80CE0C3F80CE0AD
:10364C00CEF80830FB0740F1978041F0010343604E
:10365C001160B1F5007F34D20122DCF80440CB08B4
:10366C004909134402FA01F121430CEBC3025CF843
:10367C003340083AC0E90242CCF804104CF833004D
:10368C00E0603046BDE8F84000F036BE53195B6888
:10369C00DF070ED429440CF108049368A34273D0BD
:1036AC00D46841F00102DC60A36042604150D0E775
:1036BC00704741F00103B1F5007F44F8043C116000
:1036CC00CAD3B1F5206F4FEA51234AD28B0903F1CB
:1036DC003905ED0003F138025CF805300CEB0504FC
:1036EC00083C9C4259D05A6822F003028A4202D903
:1036FC009B689C42F7D1DC68C0E90234A060D860BA
:10370C003046BDE8F84000F0F7BD53195B68DB07A5
:10371C0066D4D2E90223294441F00104D3609A60B3
:10372C00446041503046BDE8F84000F0E5BDDB0791
:10373C00294407D454F8084C001BD0E90223214437
:10374C00D3609A60294B41F001021B6842608B42A6
:10375C00CCF8080095D8264B30461968FFF7F6FED2
:10376C008FE7142B0AD9542B21D80B0B03F16F05BF
:10377C00ED0003F16E02AFE729448EE703F15C051F
:10378C00ED0003F15B02A7E741F00103CCE9040073
:10379C00C0E902444360415073E70125DCF8041092
:1037AC00921005FA02F20A43CCF80420A4E7B3F510
:1037BC00AA7F06D8CB0B03F17805ED0003F1770255
:1037CC008AE740F25452934206D88B0C03F17D05E4
:1037DC00ED0003F17C027FE74FF47E757E227BE7E0
:1037EC0041F00103436011604BE700BF4808002023
:1037FC00E40A00203C0400209368002B00F0BD80FC
:10380C002DE9F04F9046B1F90C200C46110781467A
:10381C0083B093B227D522692AB313F00207D8F8E4
:10382C0000502FD04FF0000B5F46DFF8B4A2002FF2
:10383C0000F0898057453B465A4628BF53464846B8
:10384C00E169666AB047002840F38D80D8F80830EB
:10385C0083441B1A3F1AC8F80830002BE7D100200C
:10386C0003B0BDE8F08F21464846FFF7B3FC0028B3
:10387C0040F03281B4F90C20D8F8005093B213F018
:10388C000207CFD113F0010A79D15646002E56D03B
:10389C009A05A76840F1BD80B742BB4600F2D280C2
:1038AC0013F4906F00F0D080D4E90417226807EB72
:1038BC004707A2EB010B07EBD7770BF101007F1049
:1038CC003044B8423A4684BF07463A465B0540F15D
:1038DC00E7801146484600F0B1F9002800F0F68068
:1038EC005A4621690090FCF72BFCA289009B22F41C
:1038FC00906242F08002A281A7EB0B0203EB0B005B
:10390C006761B346374623612060A2605A46514630
:10391C0000F082FCA2682368D21B374600265B4469
:10392C00A2602360D8F80820BA44D71BC8F80870E6
:10393C00002F94D0B4F90C309BB2002EA8D1D5E94D
:10394C0000A60835A2E7D5E900B708356FE7294688
:10395C005A4600F061FC236821465B4448462360CC
:10396C00FFF748FD58B3B4F90C304FF0FF3043F07B
:10397C004003A38103B0BDE8F08F002070473E46A2
:10398C00AA4638463D4600976EB3002835D0009ABB
:10399C0020682169B24228BF32468842636904D943
:1039AC00A16803EB010B5A45D1DC93426BDC2A4630
:1039BC004846E169676AB847B0F1000BD3DD009B5C
:1039CC00B3EB0B03009357D00120D8F808305D44BB
:1039DC00A3EB0B03A6EB0B06C8F80830002B3FF447
:1039EC003EAF002ED1D10AF1080353F8046C9A466D
:1039FC0053F8085C0833002EF7D032460A212846CB
:103A0C0000F0CAFB00285ED00130431B1A4600931D
:103A1C00BEE720682369984218D86269B24215D86B
:103A2C006FF00043B34228BF334693FBF2F3676A4F
:103A3C0002FB03F348465246E169B847071E92DD84
:103A4C00F61B6FE73746B34620685FE7B74228BFDF
:103A5C00374651463A4600F0DFFBA3682268DB1B71
:103A6C003A44A3602260002BEAD121464846FFF776
:103A7C00C1FC0028E4D076E721464846FFF7BAFCA3
:103A8C000028A2D06FE729469346019200F0C4FBB0
:103A9C00A1682368019A891A1A44A16022608EE7F2
:103AAC00484600F02FFC034600287FF425AF48461B
:103ABC002169FFF79BFD0C22B4F90C30C9F80020EA
:103ACC0023F0800351E7721C009261E70C22B4F9D9
:103ADC000C30C9F8002048E74FF0FF30C0E600BFBB
:103AEC0000FCFF7F2DE9F843074688464FF000099C
:103AFC0000F53876D6E90154013D10D4A389013D77
:103B0C00012B08D9B4F90E30013304D021463846C4
:103B1C00C04749EA00096B1C04F16804EED1366811
:103B2C00002EE7D14846BDE8F88300BF704700BFC0
:103B3C00704700BF704700BF704700BF70B50C46A0
:103B4C00B1F90E10154600291E4696B014DB6A46D4
:103B5C0000F0F4FE00280FDB019A4FF4806302F4AE
:103B6C007042A2F50052B2FA82F24FF40060520990
:103B7C0032602B6016B070BD0023A189336011F048
:103B8C00800004D0402218462A6016B070BD4FF455
:103B9C0080632B6016B070BD70B58B890C469D0789
:103BAC0082B007D5012201F143034A610B600B611E
:103BBC0002B070BD01AB6A460646FFF7BFFF009925
:103BCC000546304600F03AF8B4F90C3070B116499D
:103BDC00009AF163019943F08003C4E90402A381C4
:103BEC00206089B92B43A38102B070BD9A05DFD444
:103BFC00012123F0030304F1430243F00203A381E8
:103C0C00616122602261D3E73046B4F90E1000F0F6
:103C1C00ABFE10B9B4F90C30E4E7A28922F0030230
:103C2C0042F0010213B2DDE7AD340008024B01464D
:103C3C00186800F003B800BF0C0000202DE9F04F0D
:103C4C0001F10B05162D064683B024D8102900F27D
:103C5C00B68000F04BFB102502201823DFF8E88417
:103C6C0043445C68A3F10802944200F0B48063689A
:103C7C00E16823F0030323445A68A56842F001026B
:103C8C00E96030468D6008345A6000F035FB204600
:103C9C0003B0BDE8F08F35F0070500F19080A94224
:103CAC0000F28D8000F022FBB5F5FC7FC0F0858121
:103CBC006B0A00F08B80042B00F25B81AB0903F1E3
:103CCC00390003F13807C100DFF87C8441444C68AB
:103CDC000839A14206D10CE0002A80F22281E46866
:103CEC00A14206D0636823F003035A1B0F2AF3DDAD
:103CFC003846D8F81040DFF854C4644577D0626871
:103D0C0022F00302531B0F2B00F36581002BC8E933
:103D1C0004CC80F25681B2F5007F80F0068101213F
:103D2C00D30852090B4401FA02F2D8F8041058F8DF
:103D3C00337008EBC30E0A43AEF10801C4E90271FB
:103D4C00C8F8042048F83340FC60012183109940E6
:103D5C00914253D8114206D120F003004900114280
:103D6C0000F10400FAD008EBC0094C468646E7681F
:103D7C00BC4207D109E1002B80F21081FF68BC42E4
:103D8C0000F003817A6822F00302531B0F2BF2DD43
:103D9C0045F0010E3046D7E902413D4443F001069F
:103DAC00C7F804E0E1608C60C8E90455C5E902CCB1
:103DBC006E60BB5000F0A0FA07F1080402E00C237F
:103DCC0000243360204603B0BDE8F08F4FF400713F
:103DDC0040203F2778E7DC68A34208BF02307FF41D
:103DEC0046AFD8F81040DFF864C3644587D1012191
:103DFC00D8F80420831099409142ABD9D8F80840E8
:103E0C00676827F00307BD4202D87B1B0F2B77DCBA
:103E1C00DFF83C93C84BD9F800201B6801322B44C7
:103E2C0004EB070A00F0248103F580530F3323F4CD
:103E3C007F6B2BF00F0B5946304600F053FC411CA6
:103E4C00024600F0E180824500F2DC80BB4B196831
:103E5C0059440846196000F04181D9F800100193CB
:103E6C0001311BBFA2EB0A0A5044C9F800201860AC
:103E7C0012F0070A00F00A81CAF108010A44CAF5D7
:103E8C00805193440831A1EB0B01C1F30B09494656
:103E9C003046009200F026FC421CDDE9002300F0C5
:103EAC004381801A00EB090B19684BF0010049445F
:103EBC004445C8F808201960506000F01C810F2F91
:103ECC0040F21B814FF0050C60680C3F27F0070790
:103EDC0000F00100384304EB070E0F2F6060CEE9B1
:103EEC0001CC00F2378114465068954B1A688A420F
:103EFC0038BF1960934B1A688A4238BF196086E044
:103F0C0045F0010243F00103254462603046C8F8D5
:103F1C00085008346B6000F0EFF9204603B0BDE8A0
:103F2C00F08F23445A68E168A7E6B2F5206F4FEA98
:103F3C00522361D3142B00F2BA8003F15C01C90047
:103F4C005B3308EB010758F80110083F8F4200F073
:103F5C0092804B6823F00303934202D989688F4205
:103F6C00F7D1CF68D8F80420C4E90217BC60CC6044
:103F7C00EBE6142B59D9542B00F2A1802B0B03F137
:103F8C006F0003F16E07C1009EE60EF1010E1EF0EC
:103F9C00030F04F108047FF4EAAE51E03C463A44C6
:103FAC005368F96854F8085F43F0010353603046D6
:103FBC00E9608D6000F0A0F904E7E80805F108035A
:103FCC004CE622445368304643F0010353600834F6
:103FDC0000F092F9F6E645F0010743F001012544A3
:103FEC0067603046C8E90455C5E902CC6960A35046
:103FFC0000F082F90834E5E6930903F13901C900B0
:10400C0038339EE7444564D0D8F80840606820F007
:10401C00030B5D45ABEB050302D80F2B3FF770AFDD
:10402C00304600F069F90024CCE603F15C0003F1A2
:10403C005B07C10048E659F808394B4540F0A980A8
:10404C0010F0030F00F1FF30F5D1D8F8043023EA5B
:10405C000103C8F80430490099423FF6CFAE19B9B4
:10406C00CCE649000EF1040E1942FAD070467AE6FD
:10407C0003F1100BDFE64FF0010E9A10D8F8043064
:10408C000EFA02F21A43C8F804206DE702EB0B019A
:10409C004942C1F30B0949463046009200F022FB1D
:1040AC00431CDDE900237FF4FCAED146FCE6542B27
:1040BC0026D8130B03F16F01C9006E3341E7B3F53A
:1040CC00AA7F26D8EB0B03F1780003F17707C10028
:1040DC00FAE51A4B186858441860BEE6CAF30B0C84
:1040EC00BCF1000F7FF4B9AED8F80840BB444BF0DC
:1040FC0001006060F9E61446F7E6012353608FE790
:10410C00B3F5AA7F32D8D30B03F17801C90077330A
:10411C0017E740F25452934232D8AB0C03F17D00B6
:10412C0003F17C07C100CFE5AAF1080AD3444FF094
:10413C000009ABEB020BB7E6E40A0020B40A00203E
:10414C00DC0A0020E00A00203C040020440400208B
:10415C004408002004F1080130460093FFF746FAAA
:10416C00D8F80840009B60681968BEE640F25451CC
:10417C008B420AD8930C03F17D01C9007C33E0E635
:10418C004FF47E717F207E279EE54FF47E717E2357
:10419C00D7E6D8F804305EE770B48407CDB212D0FD
:1041AC000346541E2AB90BE09A0718460CD0013C62
:1041BC0006D3184613F8012BAA42F5D170BC7047F0
:1041CC00002070BC70471446032C0DD8002CF7D07F
:1041DC000246031901E09A42F2D0104612F8011B74
:1041EC00A942F8D170BC704706460A0292B22A4323
:1041FC0042EA0242336830465340A3F1013121EACE
:10420C00030313F0803F06F10406E1D1043C032CB8
:10421C003046EFD8DAE700BF8842F0B40DD98B18DE
:10422C0083420AD9841832B1224613F8014D9942BF
:10423C0002F8014DF9D1F0BC70470F2A0ED8034695
:10424C00541E002AF7D001340C44013B11F8012B09
:10425C00A14203F8012FF9D1F0BC704740EA0103E9
:10426C009B073ED1A2F1100323F00F0401F12007AC
:10427C0027441B0901F1100400F1100554F8106CCF
:10428C00103445F8106C54F81C6C103545F81C6C47
:10429C0054F8186C45F8186C54F8146CBC4245F87A
:1042AC00146CEBD1013312F00C0F01EB031102F083
:1042BC000F0400EB031317D00E46043C24F0030C40
:1042CC00A5089C441C1F56F8047B44F8047F6445E5
:1042DC00F9D16C1C03EB840301EB840102F00302A3
:1042EC00AEE70346541EAEE72246A9E70148FFF7A6
:1042FC0021BC00BFF80A00200148FFF71DBC00BF1D
:10430C00F80A00202DE9F84F1646002900F0BD8070
:10431C0006F10B050C468046FFF7E8FF162D5FD81B
:10432C0010252A46AE4260D854F8041CA4F10809A2
:10433C0021F00307974280F28680C94B09EB0700F6
:10434C00D3F808C0844500F0B980D0F804C02CF034
:10435C00010303445B68DB0700F18C802CF0030C39
:10436C0007EB0C03934280F21581CB070FD454F862
:10437C00083CA9EB030ADAF8043023F003018C445F
:10438C00BC44944538DA7B18934280F20F81314655
:10439C004046FFF753FC0646E0B154F8043CA0F14C
:1043AC00080223F001034B44934200F0F9803A1FBA
:1043BC00242A00F21C81132A00F2CD8003462246E7
:1043CC00116819605168596092689A60214640469C
:1043DC00FFF70CF94046FFF78FFF3046BDE8F88F2A
:1043EC0025F00705002D2A469CDA0C230026C8F878
:1043FC0000303046BDE8F88F5646D0E90213CB604A
:10440C00996056F8081FDAF80C303A1F242ACB6052
:10441C00996000F20781132A40F2028123681B2A5B
:10442C00CAF808306368CAF80C3000F21B810834F3
:10443C000AF11003226867461A606268D1465A6016
:10444C00A26834469A607B1B0F2BD9F8042021D824
:10445C0002F001023A4309EB0701C9F804204B684A
:10446C0043F001034B6026464046FFF745FF3046BC
:10447C00BDE8F88FC9078AD454F8083CA9EB030AA5
:10448C00DAF8041021F003017DE71146BDE8F84F7E
:10449C00FFF7D4BB02F0010209EB050143F0010365
:1044AC002A43C9F804204F444B607B68404643F0D4
:1044BC00010308317B60FFF799F8D4E7DCF804B00E
:1044CC0005F110002BF0030B07EB0B0C84454DDAB8
:1044DC00C9073FF55CAF54F8081CA9EB010ADAF8E0
:1044EC00041021F003018B44BB4458453FF74BAFFC
:1044FC005646DAF80C1056F8080F3A1F242AC160F9
:10450C00886000F2BD80132A40F2B88021681B2A13
:10451C00CAF808106168CAF80C1000F2C18008349F
:10452C000AF110022168116061685160A168916004
:10453C00ABEB05020AEB050142F0010299604A60FF
:10454C00DAF80430404603F001031D43CAF8045066
:10455C00FFF7D2FE4DE723681B2A036063684360B4
:10456C0049D804F1080200F1080329E7ACEB050275
:10457C0009EB050142F0010299604A6054F8043CD1
:10458C00404603F001031D4344F8045CFFF7B4FEFE
:10459C0026462EE7D0E902121F46CA60916052E708
:1045AC0050F8043C23F003031F444CE75646DAF85A
:1045BC000C1056F8080F3A1F242AC160886027D8BF
:1045CC00132A23D921681B2ACAF808106168CAF873
:1045DC000C102FD808340AF1100221681F46116004
:1045EC006368D1465360A368344693602BE7214639
:1045FC00FFF712FEEAE6A368242A8360E368C3602F
:10460C0024D004F1100200F11003D9E63246E4E79D
:10461C00214630461F46D146FFF7FEFD344612E7D1
:10462C00334607E7214630466746D146FFF7F4FD8F
:10463C00344608E7A168242ACAF81010E168CAF8C1
:10464C00141023D010340AF11802C6E7236904F1C0
:10465C0018020361616900F118034161B0E600BF03
:10466C003C040020A368242ACAF81030E368CAF876
:10467C00143021D010340AF11803DBE6324651E72E
:10468C0021463046FFF7C8FD154B51E721690AF169
:10469C002002CAF8181061691834CAF81C109CE77B
:1046AC00A168242ACAF81010E168CAF814100DD0B9
:1046BC0010340AF1180235E722690AF12003CAF80E
:1046CC00182062691834CAF81C20B3E621690AF173
:1046DC002002CAF8181061691834CAF81C1021E7B6
:1046EC003C040020002238B5064D044608462A60DA
:1046FC00FCF7FCF8431C00D038BD2B68002BFBD01A
:10470C00236038BD0C0B002010B50C46B1F90E100F
:10471C0000F052F9002803DB236D0344236510BD20
:10472C00A38923F48053A38110BD00BF2DE9F04170
:10473C000C46B1F90C101F46CB05164605460BD49A
:10474C0021F48051A1813B4632462846B4F90E1023
:10475C00BDE8F04100F01EB8B4F90E10022300229F
:10476C0000F014F9B4F90C10EAE700BF10B50C46D0
:10477C00B1F90E1000F00AF9A389421C0EBF23F404
:10478C00805343F480532065A38110BDB1F90E1002
:10479C0000F05CB8F8B50F460026084D11460446EB
:1047AC001A4638462E60FEF7EFFA431C00D0F8BDCF
:1047BC002B68002BFBD02360F8BD00BF0C0B002036
:1047CC002DE9F047DFF880A00646DAF8000098469D
:1047DC000F469146FFF7AEF91A4B1B68D3F84841C8
:1047EC0024B365681F2D26DC5EB96B1C0235DAF824
:1047FC000000636044F82570FFF79EF90020BDE8C7
:10480C00F087012304EB8501C1F88890D4F8882146
:10481C00AB401A43022EC4F88821C1F80881E4D1B8
:10482C00D4F88C211343C4F88C31DEE703F5A6745D
:10483C00C3F84841D5E7DAF80000FFF77DF94FF0EF
:10484C00FF30DCE7984A000838040020002238B515
:10485C00064D044608462A60FCF766F8431C00D057
:10486C0038BD2B68002BFBD0236038BD0C0B00200F
:10487C0070B500294BD00C46054610B1836B002B4C
:10488C0048D0636ED80734D5B4F90C30002B3ED029
:10489C0021462846FEF716FDE36A064633B1284644
:1048AC00E16998470028B8BF4FF0FF36A3891A0674
:1048BC003BD4216B41B104F14003994202D028460C
:1048CC00FEF794FE00232363616C21B12846FEF7AA
:1048DC008DFE00236364FEF717FE0022636EA28137
:1048EC00DB0727D5A06DFFF723F9FEF713FE304643
:1048FC0070BDA3899905CBD4A06DFFF71BF9B4F952
:10490C000C30002BC4D1666E16F0010608D00026C0
:10491C00304670BDFEF7CAFD636ED807B4D4E8E725
:10492C00A06DFFF709F9304670BD28462169FEF7E6
:10493C005DFEBEE7A06DFFF7FFF8D3E770B50C4640
:10494C0003460026074D204611461C462E60FBF7F9
:10495C00EEFF431C00D070BD2B68002BFBD02360F6
:10496C0070BD00BF0C0B0020002238B5064D04466C
:10497C0008462A60FBF7E0FF431C00D038BD2B68CB
:10498C00002BFBD0236038BD0C0B0020F8B50F4674
:10499C000026084D114604461A4638462E60FBF791
:1049AC00CDFF431C00D0F8BD2B68002BFBD023603F
:1049BC00F8BD00BF0C0B0020F8B50F460026084DC3
:1049CC00114604461A4638462E60FEF7F7F9431C8A
:1049DC0000D0F8BD2B68002BFBD02360F8BD00BFC6
:1049EC000C0B0020F8B500BFF8BC08BC9E46704705
:0C49FC00F8B500BFF8BC08BC9E46704730
:104A08000D0A2054582E0D000D0A202020202020A9
:104A18004E5246D3EB4D4355C1ACBDD3B3C9B9A62D
:104A2800A3A10D000D0A20204E5246D3EB4D43554D
:104A3800C1ACBDD3CAA7B0DCA3ACC7EBD6D8D0C233
:104A4800BCECB2E9BDD3CFDFA1A30D00000000008C
:104A58000000000001020304060708090000000026
:104A68000102030402030405060708090A0B0C0DDA
:104A78000E0F101000000000A5A5A5A5A5000000B8
:104A880034431010010000003443101001000000EE
:084A9800100000200A000000DC
:084AA000B132000831010008E9
:044AA8000D010008F4
:104AAC000024F400010000001000000010000020A1
:104ABC0000000000FC02002064030020CC03002056
:104ACC0000000000000000000000000000000000DA
:104ADC0000000000000000000000000000000000CA
:104AEC0000000000000000000000000000000000BA
:104AFC0000000000000000000000000000000000AA
:104B0C000000000000000000000000000000000099
:104B1C000000000000000000000000000000000089
:104B2C000000000000000000000000000000000079
:104B3C000000000000000000000000000000000069
:104B4C000000000000000000000000000000000059
:104B5C000000000000000000010000000000000048
:104B6C000E33CDAB34126DE6ECDE05000B0000000D
:104B7C000000000000000000000000000000000029
:104B8C000000000000000000000000000000000019
:104B9C000000000000000000000000000000000009
:104BAC0000000000000000000000000000000000F9
:104EDC000000000000000000E80A002000000000B4
:104EEC00000000003C0400203C040020440400208E
:104EFC00440400204C0400204C04002054040020E6
:104F0C00540400205C0400205C0400206404002095
:104F1C00640400206C0400206C0400207404002045
:104F2C00740400207C0400207C04002084040020F5
:104F3C00840400208C0400208C04002094040020A5
:104F4C00940400209C0400209C040020A404002055
:104F5C00A4040020AC040020AC040020B404002005
:104F6C00B4040020BC040020BC040020C4040020B5
:104F7C00C4040020CC040020CC040020D404002065
:104F8C00D4040020DC040020DC040020E404002015
:104F9C00E4040020EC040020EC040020F4040020C5
:104FAC00F4040020FC040020FC0400200405002074
:104FBC00040500200C0500200C0500201405002021
:104FCC00140500201C0500201C05002024050020D1
:104FDC00240500202C0500202C0500203405002081
:104FEC00340500203C0500203C0500204405002031
:104FFC00440500204C0500204C05002054050020E1
:10500C00540500205C0500205C0500206405002090
:10501C00640500206C0500206C0500207405002040
:10502C00740500207C0500207C05002084050020F0
:10503C00840500208C0500208C05002094050020A0
:10504C00940500209C0500209C050020A405002050
:10505C00A4050020AC050020AC050020B405002000
:10506C00B4050020BC050020BC050020C4050020B0
:10507C00C4050020CC050020CC050020D405002060
:10508C00D4050020DC050020DC050020E405002010
:10509C00E4050020EC050020EC050020F4050020C0
:1050AC00F4050020FC050020FC050020040600206F
:1050BC00040600200C0600200C060020140600201C
:1050CC00140600201C0600201C06002024060020CC
:1050DC00240600202C0600202C060020340600207C
:1050EC00340600203C0600203C060020440600202C
:1050FC00440600204C0600204C06002054060020DC
:10510C00540600205C0600205C060020640600208B
:10511C00640600206C0600206C060020740600203B
:10512C00740600207C0600207C06002084060020EB
:10513C00840600208C0600208C060020940600209B
:10514C00940600209C0600209C060020A40600204B
:10515C00A4060020AC060020AC060020B4060020FB
:10516C00B4060020BC060020BC060020C4060020AB
:10517C00C4060020CC060020CC060020D40600205B
:10518C00D4060020DC060020DC060020E40600200B
:10519C00E4060020EC060020EC060020F4060020BB
:1051AC00F4060020FC060020FC060020040700206A
:1051BC00040700200C0700200C0700201407002017
:1051CC00140700201C0700201C07002024070020C7
:1051DC00240700202C0700202C0700203407002077
:1051EC00340700203C0700203C0700204407002027
:1051FC00440700204C0700204C07002054070020D7
:10520C00540700205C0700205C0700206407002086
:10521C00640700206C0700206C0700207407002036
:10522C00740700207C0700207C07002084070020E6
:10523C00840700208C0700208C0700209407002096
:10524C00940700209C0700209C070020A407002046
:10525C00A4070020AC070020AC070020B4070020F6
:10526C00B4070020BC070020BC070020C4070020A6
:10527C00C4070020CC070020CC070020D407002056
:10528C00D4070020DC070020DC070020E407002006
:10529C00E4070020EC070020EC070020F4070020B6
:1052AC00F4070020FC070020FC0700200408002065
:1052BC00040800200C0800200C0800201408002012
:1052CC00140800201C0800201C08002024080020C2
:1052DC00240800202C0800202C0800203408002072
:0C52EC0034080020FFFFFFFF000002005C
:0400000508002DF9C9
:00000001FF
